:100000000A128A110C286E34FE00030EF0000A0852
:10001000F1000A168A15102C0A128A110F280A12EA
:100020008A1103200A128A11FB008313A030840076
:10003000BD300A128A11F827EA01EB01EC01ED014B
:10004000EE01EF0183010A128A11FE2E8316D400FD
:100050005E30FF007F08C00083125D08E2005C088C
:10006000E100DC0A0319DD0A6208FF006108840070
:100070000A168A1100200A128A11FF007F088316CF
:10008000D50055080319F92E2530550603194A28BD
:100090005508EE2ECD01CE01CB01CC015828831698
:1000A0004B1501308312DC070318DD0A0030DD0731
:1000B00083125D08FF005C0884000A168A11002084
:1000C0000A128A11303A03194F2866285D08FF008A
:1000D0005C0884000A168A1100200A128A110A1686
:1000E0008A15CE220A128A11031CC2288316CD015A
:1000F000CE010A308312B2000030B30083164E08DE
:100100008312B50083164D088312B4000A168A15AF
:1001100084230A128A1133088316CE008312320810
:100120008316CD0083125D08FF005C0884000A1668
:100130008A1100200A128A11D03EE100FF30031814
:100140000030E20061088316CD070318CE0A83123F
:1001500062088316CE0701308312DC070318DD0A1C
:100160000030DD075D08FF005C0884000A168A1174
:1001700000200A128A110A168A15CE220A128A1142
:10018000031879285D08FF005C0884000A168A11AC
:1001900000200A128A112E3A031D242983164C17B7
:1001A00001308312DC070318DD0A0030DD078316F7
:1001B000D201D30183125D08FF005C0884000A1697
:1001C0008A1100200A128A110A168A15CE220A12F2
:1001D0008A11031C2B290A30B2000030B3008316A9
:1001E00053088312B500831652088312B4000A160E
:1001F0008A1584230A128A1133088316D3008312C6
:1002000032088316D20083125D08FF005C08840068
:100210000A168A1100200A128A11D03EE100FF302E
:1002200003180030E20061088316D2070318D30ACE
:10023000831262088316D30701308312DC07031888
:10024000DD0A0030DD07DA288316D201D3014C160F
:100250002B294C15452983125D08E2005C08E1005A
:10026000DC0A0319DD0A6208FF00610884000A162F
:100270008A1100200A128A118316D500003A031948
:10028000F92E663A031929292C2800304B058312D0
:10029000E100073083164C058312E2006108620416
:1002A0000319202E83164C1E59290630D200003027
:1002B000D3004008840083130008CF00840A00089C
:1002C000D000840A0008D1000330FF007F08C00777
:1002D0004F08F2005008F3005108F4000030F50018
:1002E0000030F6000030F7000A168A1566240A125C
:1002F0008A11031890294F08F2005008F3005108A2
:10030000F4000A168A15BB220A128A117208CF005D
:100310007308D0007408D1000330CB040030CC0443
:10032000C901CA01510850044F0403196B2ACF3088
:100330008400831300088312E100840A0008E200AD
:10034000840A0008E300840A0008E4000F30031068
:10035000E40CE30CE20CE10CFF3E031DA729FF3087
:100360006105E50000306205E6006508823E8316FF
:10037000C900831266080318013EFF3E8316CA00B7
:10038000FF30C9070318CA0AFF30CA0703308312B7
:10039000B2000030B30083164A088312B5008316FA
:1003A00049088312B4000A168A1584230A128A1196
:1003B00033088316CA00831232088316C9000A3034
:1003C0008312A0000030A10083164A088312A30004
:1003D000831649088312A2000A168A15EC260A120F
:1003E0008A1121088316CA00831220088316C900C7
:1003F000CA1F002AFF30C9070318CA0AFF30CA07FC
:100400004903FF3A0A128A155A250A128A113F082F
:100410008316C500831240088316C6008312410864
:100420008316C7004F088312B0008316500883124A
:10043000B100831651088312B20083164508831257
:10044000B300831646088312B4008316470883124C
:10045000B5000A128A1522200A128A113008831662
:10046000C500831231088316C60083123208831632
:10047000C7004508F2004608F3004708F4000030C2
:10048000F5008030F6003F30F7000A168A15662422
:100490000A128A110318522AFF30C9070318CA0A20
:1004A000FF306A2A4508F2004608F3004708F400C6
:1004B0000030F5002030F6004130F7000A168A15AA
:1004C00066240A128A11031C6B2A0130C90703181B
:1004D000CA0A0030CA075308803AFF0080307F0202
:1004E000031D742A0D3052020318A02A8316031329
:1004F00052080A128A1537220A128A113F08CA00C6
:100500004008CB004108CC0083164F088312CD0071
:10051000831650088312CE00831651088312CF0031
:100520000A168A11E3250A128A114A088316CF0097
:1005300083124B088316D00083124C088316D10017
:10054000831603134A08803AFF0080307F02031DA0
:10055000AB2A0A3049020318D62A8316031351081E
:1005600050044F040319252B4F088312CE00831625
:1005700050088312CF00831651088312D0000A1648
:100580008A11F4210A128A11510850044F044E04B2
:10059000031D252B83164A08803AFF0080307F0216
:1005A000031DD42A02304902031C252B8316031392
:1005B0004508F2004608F3004708F4007030F500E3
:1005C0008930F6004030F7000A168A1566240A12B0
:1005D0008A110318ED2AF730EE2AF830C9070318FC
:1005E000CA0AFF30CA0749080A128A155A250A1290
:1005F0008A113F088316C500831240088316C6007F
:10060000831241088316C7004F08F2005008F30018
:100610005108F4004508F5004608F6004708F700C1
:100620000A168A113B250A128A1175088316C4001E
:100630007408C3007308C2007208C1000030CF0004
:100640000030D0000030D1007E2B831603134F08FA
:100650008312CE00831650088312CF0083165108F0
:100660008312D0000A168A11F4210A128A11510845
:100670008316C400831250088316C30083124F08E8
:100680008316C20083124E088316C10044088312E9
:10069000A300831643088312A20083164208831224
:1006A000A100831641088312A0000A168A153B2474
:1006B0000A128A112008D6002108D7002208D80083
:1006C00083164F088312D900831650088312DA006C
:1006D000831651088312DB000A168A116B210A1255
:1006E0008A1156088316CF00831257088316D0004C
:1006F000831258088316D100C901CA01D501D50A51
:1007000055088312E10001300310E10DFF3E031D87
:10071000842B0310610D603E840090300318013E6D
:10072000FF000A168A1100200A128A11E2000A1636
:100730008A1100200A128A11E3000A168A11002089
:100740000A128A11E4000A168A1100200A128A117C
:10075000E500650883164402031DBE2B831264085E
:1007600083164302031DBE2B8312630883164202C5
:10077000031DBE2B8312620883164102031CC82B83
:100780000130FF007F08D5070A305506031D802B76
:10079000550852078312E100831653080318530AC1
:1007A0008312E2008316490883126107E30083166F
:1007B0004A0803184A0A83126207E4006308831692
:1007C000CD02831264088316031CCE03CE025208A6
:1007D00053040319F12BFF30CD070318CE0AFF3065
:1007E000CE074B0803390319FB2BFF30CD07031845
:1007F000CE0AFF30CE074B1D3E2C4B0803390319A0
:100800000C2C2D30FF00540884007F0883138000D7
:100810000130FF007F08D4074E08803AFF00803087
:100820007F02031D152C01304D02031C5A2C303061
:10083000FF0083160313540884007F08831380008D
:100840000130FF007F08D407FF30CD070318CE0A20
:10085000FF30CE070C2C2030FF0083160313540802
:1008600084007F08831380000130FF007F08D407D5
:10087000FF30CD070318CE0AFF30CE074E08803A6E
:10088000FF0080307F02031D472C01304D0203180A
:100890002B2C831603134B08033903195A2C2D30C4
:1008A000FF00540884007F08831380000130FF009C
:1008B0007F08D407013083160313D502550A0319A4
:1008C000D52C55088312E10001300310E10DFF3EE5
:1008D000031D652C0310610D603E840090300318E9
:1008E000013EFF000A168A1100200A128A11F20046
:1008F0000A168A1100200A128A11F3000A168A11B8
:1009000000200A128A11F4000A168A1100200A1225
:100910008A11F50083164408F9004308F8004208DC
:10092000F7004108F6000A168A15A1270A128A1153
:1009300075088316C8007408C7007308C6007208DB
:10094000C5000030F5000030F4000030F3000A303C
:10095000F2004808F9004708F8004608F700450883
:10096000F6000A168A154B260A128A117508831694
:10097000C8007408C7007308C6007208C50045089F
:10098000303E502C3030FF0083160313540884008F
:100990007F08831380000130FF007F08D407FF30F9
:1009A000C9070318CA0AFF30CA074A08803AFF007D
:1009B00080307F02031DDE2C013049020318C22C57
:1009C000831603135308803AFF0080307F02031D13
:1009D000EB2C09305202031CF32C0830FF007F0877
:1009E00083160313F82C831603135208FF007F08A5
:1009F000D50055088312E100E20161088316D20296
:100A0000831262088316031CD303D302550803190B
:100A1000142D2E30FF00540884007F0883138000BB
:100A20000130FF007F08D40755080A128A155A259D
:100A30000A128A113F088316BD00831240088316EC
:100A4000BE00831241088316BF003D088312B30025
:100A500083163E088312B40083163F088312B50044
:100A600083164F088312B000831650088312B1001A
:100A7000831651088312B2000A128A1522200A1224
:100A80008A113008CE003108CF003208D0000A1693
:100A90008A11F4210A128A1151088316C4008312A4
:100AA00050088316C30083124F088316C2008312B6
:100AB0004E088316C1000130D502550A03191B2EBA
:100AC00055088312E10001300310E10DFF3E031DC4
:100AD000642D0310610D603E840090300318013EC8
:100AE000FF000A168A1100200A128A11F2000A1663
:100AF0008A1100200A128A11F3000A168A110020B6
:100B00000A128A11F4000A168A1100200A128A11A8
:100B1000F50083164408F9004308F8004208F7007E
:100B20004108F6000A168A15A1270A128A117508CB
:100B30008316C8007408C7007308C6007208C50091
:100B40000030F5000030F4000030F3000A30F2000D
:100B50004808F9004708F8004608F7004508F6007D
:100B60000A168A154B260A128A1175088316C800C0
:100B70007408C7007308C6007208C5004508303EF7
:100B8000FF00540884007F08831380000130FF00B9
:100B90007F08D40755088312E10001300310E10DEE
:100BA000FF3E031DCE2D0310610D603E840090308A
:100BB0000318013EFF000A168A1100200A128A114A
:100BC000F2000A168A1100200A128A11F3000A168E
:100BD0008A1100200A128A11F4000A168A110020D4
:100BE0000A128A11F50083164408F9004308F80038
:100BF0004208F7004108F6000A168A154B260A1229
:100C00008A1175088316C4007408C3007308C200F3
:100C100072085A2D3030FF00540884007F08831377
:100C200080000130FF007F08D407FF30D20703188F
:100C3000D30AFF30D3075208530403192C280A2E75
:100C4000831652085304031D312E44084304420402
:100C50004104031D312E0130D2070318D30A00309E
:100C6000D3075308803A803C031D382E52085502A2
:100C70000318412E831603135208FF007F08D50086
:100C80005D2E831603135308803A8312E1008030EF
:100C90006102031D4E2E83165508520203185D2E65
:100CA0008316031355088312E100E20161088316DD
:100CB000D200831262088316D300831603134D08F3
:100CC0004E0403196D2E4B08033903196D2EFF30A6
:100CD000CD070318CE0AFF30CE074C1F8C2E5308C9
:100CE000803A8312E10083164E08803A8312610233
:100CF000031D7D2E83164D0852020318882E83167D
:100D000003135208CD025308031CCE03CE028C2ECF
:100D100083160313CD01CE014E08803A803C031D9B
:100D2000932E4D0855020318A52E8316031355085C
:100D30008312E100E20161088316CD02831262088A
:100D40008316031CCE03CE02A92E83160313CD01F6
:100D5000CE014B1DD02E4B0803390319BA2E2D306E
:100D6000FF00540884007F08831380000130FF00D7
:100D70007F08D4074D084E0403192C283030FF009B
:100D8000540884007F08831380000130FF007F082F
:100D9000D407FF30CD070318CE0AFF30CE07BA2E96
:100DA0004D084E040319E92E2030FF00540884003A
:100DB0007F08831380000130FF007F08D407FF30D5
:100DC000CD070318CE0AFF30CE074D084E04031D91
:100DD000D42E4B08033903192C282D30FF0054085A
:100DE00084007F08831380000130FF007F08D40750
:100DF0002C2854088400831380010800831687017F
:100E0000880106148716831287010A168A15E923BA
:100E10000A128A110A168A1545270A128A11003009
:100E2000A9000030A8001330A7008830A6000A16D9
:100E30008A1574250A128A110A168A15B4220A1212
:100E40008A110A168A15C3220A128A110A168A15ED
:100E50000D230A128A110A168A11EC220A128A112B
:100E60000A168A15EC220A128A110A168A15A82275
:100E70000A128A110A168A15AE220A128A11203025
:100E8000F7009130F8000A168A15F7240A128A1121
:100E90008830F3009030F4000A168A15A5230A1250
:100EA0008A110A168A116F220A128A11A03083123F
:100EB0000313BF008C30C0004630C1006030B0006A
:100EC0006A30B1004730B2006F08A1006E08A00080
:100ED0000A168A151F230A128A112008B300210856
:100EE000B4002208B5000A128A1522200A128A11BB
:100EF0003008C2003108C3003208C4000A168A1143
:100F0000FC230A128A113F088316A00083124008AE
:100F10008316A100831241088316A200CC308312ED
:100F2000DC009030DD00831620088312DE0083167B
:100F300021088312DF00831622088312E000A53007
:100F40000A128A1126200A128A118312871EC42FC0
:100F50008830F3009030F4000A168A15A5230A128F
:100F60008A110A168A15C3220A128A113B30F70029
:100F70009130F8000A168A15F7240A128A110A1607
:100F80008A116F220A128A11831203136B08DC0084
:100F90006A08DB000A168A1194240A128A11F601E3
:100FA000F60A02300A168A15B6250A128A11A530E9
:100FB000F7000030F8000A168A15F7240A128A1181
:100FC000A530F3000030F4000A168A15A5230A1292
:100FD0008A11063083120313E9001330E800AD30A4
:100FE000E700E70BF12FE80BF12FE90BF12F562F5C
:100FF00064008001840A0406031900340406F92FF2
:10100200A000A201780803192028A101A10AF81B57
:1010120011280310F80D0130FF007F08A1070828EE
:101022000310A20D78082002031C1B287808A002D6
:1010320022140310F80C0130A102031D112822080A
:1010420008003008B6003108B7003208B8000310B3
:10105200370D380DFF007F08B9003908031D382805
:101062000030B0000030B1000030B2000800330898
:10107200B6003408B7003508B8000310370D380D34
:10108200FF007F08BE003E08031D4E280030B0005E
:101092000030B1000030B20008003E087B3EFF0085
:1010A2007F08B9073208FF007F08BE003508FF003D
:1010B2007F08BE068030FF007F08BE05B117B41757
:1010C200FF30B305FF30B4050030B5050030BA007B
:1010D2000030BB000030BC000730FF007F08BD00BD
:1010E200301C81283308BA07340803110318340A64
:1010F200031DBB07350803110318350A031DBC077E
:1011020001300310B20CB10CB00CFF3E031D82285B
:1011120001300310B30DB40DB50DFF3E031D8A2837
:101122000130BD02031D71280930FF007F08BD0098
:10113200301CA9283308BA07340803110318340AEB
:10114200031DBB07350803110318350A031DBC072D
:1011520001300310B20CB10CB00CFF3E031DAA28E3
:1011620001300310BC0CBB0CBA0CFF3E031DB228AD
:101172000130BD02031D99283A08F2003B08F30032
:101182003C08F4003908FF007F08F5003E08FF0024
:101192007F08F6000A168A1188217208B0007308C7
:1011A200B1007408B200080087118614061586156E
:1011B200061AEE280330F4008A30F3005530F200AC
:1011C200F20BE128F30BE128F40BE128E828831263
:1011D2000313061EE82831300800861A032903305B
:1011E200F4008A30F3005530F200F20BF628F30BCC
:1011F200F628F40BF628FD2883120313861EFD2819
:1012020032300800061B18290330F4008A30F3003C
:101212005530F200F20B0B29F30B0B29F40B0B29BF
:10122200122983120313061F122933300800861B6A
:101232002D290330F4008A30F3005530F200F20B0E
:101242002029F30B2029F40B2029272983120313C9
:10125200861F272941300800871586100615861536
:10126200061A46290330F4008A30F3005530F200A2
:10127200F20B3929F30B3929F40B3929402983124E
:101282000313061E402936300800861A5B290330F4
:10129200F4008A30F3005530F200F20B4E29F30BC2
:1012A2004E29F40B4E29552983120313861E552904
:1012B20035300800061B70290330F4008A30F30031
:1012C2005530F200F20B6329F30B6329F40B632907
:1012D2006A2983120313061F6A2934300800861B09
:1012E20085290330F4008A30F3005530F200F20B06
:1012F2007829F30B7829F40B78297F2983120313B9
:10130200861F7F294230080087158614061186152C
:10131200061A9E290330F4008A30F3005530F20099
:10132200F20B9129F30B9129F40B9129982983123D
:101332000313061E982937300800861AB329033092
:10134200F4008A30F3005530F200F20BA629F30BB9
:10135200A629F40BA629AD2983120313861EAD29F3
:1013620038300800061BC8290330F4008A30F30025
:101372005530F200F20BBB29F30BBB29F40BBB294E
:10138200C22983120313061FC22939300800861BA3
:10139200DD290330F4008A30F3005530F200F20BFD
:1013A200D029F30BD029F40BD029D72983120313A8
:1013B200861FD72943300800871586140615861123
:1013C200061AF6290330F4008A30F3005530F20091
:1013D200F20BE929F30BE929F40BE929F02983122D
:1013E2000313061EF0292A300800861A0B2A03303E
:1013F200F4008A30F3005530F200F20BFE29F30BB1
:10140200FE29F40BFE29052A83120313861E052AE0
:1014120030300800061B202A0330F4008A30F30023
:101422005530F200F20B132AF30B132AF40B132A92
:101432001A2A83120313061F1A2A23300800861B56
:10144200352A0330F4008A30F3005530F200F20BF3
:10145200282AF30B282AF40B282A2F2A8312031393
:10146200861F2F2A443008006E3008008312C900FC
:101472006E304902031CF92A0330FF007F08A800DE
:101482000A30FF007F08F8006430FF007F08F20096
:1014920049080A168A15C6230A128A150A128A15DB
:1014A20001200A128A150A168A15FC220A128A15C6
:1014B200543E840090300318013EFF000A168A1140
:1014C20000200A128A15B0000A168A1100200A1298
:1014D2008A15B1000A168A1100200A128A15B20072
:1014E2000330FF007F08A8006430FF007F08F80087
:1014F20049080A128A1501200A128A150A168A1543
:10150200FC220A128A156F3E840090300318013EB5
:10151200FF000A168A1100200A128A15B3000A1661
:101522008A1100200A128A15B4000A168A110020B4
:101532000A128A15B5000A128A1522200A128A1581
:101542003008C6003108C7003208C8000330FF0067
:101552007F08A8000A30FF007F08F20049080A1637
:101562008A15C6230A128A150A168A15FC220A123D
:101572008A15393E840090300318013EFF000A1696
:101582008A1100200A128A15B0000A168A11002058
:101592000A128A15B1000A168A1100200A128A1547
:1015A200B2004608B3004708B4004808B5000A1262
:1015B2008A1522200A128A153008C3003108C40095
:1015C2003208C5000030B0000030B1003F30B20038
:1015D2004308B3004408B4004508B5000A128A154E
:1015E20022203008BF003108C0003208C1000800C4
:1015F2000B304902031C742B0330FF007F08A80044
:101602000A30FF007F08F20049080A168A15C6232D
:101612000A128A150A168A15FC220A128A15393EFE
:10162200840090300318013EFF000A168A11002040
:101632000A128A15B0000A168A1100200A128A15A7
:10164200B1000A168A1100200A128A15B20003306C
:10165200FF007F08A8000A30FF007F08F800490851
:101662000A128A1501200A128A150A168A15FC2204
:101672000A128A15543E840090300318013EFF007E
:101682000A168A1100200A128A15B3000A168A1154
:1016920000200A128A15B4000A168A1100200A12C2
:1016A2008A15B5000A128A1522200A128A153008F4
:1016B200C6003108C7003208C8000030B000003050
:1016C200B1003F30B2004608B3004708B4004808F2
:1016D200B5000A128A1522203008BF003108C00066
:1016E2003208C10008000030B0000030B1003F30C5
:1016F200B2000330FF007F08A80049080A168A15C5
:10170200FC220A128A15393E840090300318013EE9
:10171200FF000A168A1100200A128A15B3000A165F
:101722008A1100200A128A15B4000A168A110020B2
:101732000A128A15B5000A128A1522203008BF0043
:101742003108C0003208C1000800BD01BE01D50148
:10175200D6010A168A15DC220A128A15FF007F08B2
:10176200D70030305706031DD12B57080A168A15A9
:10177200C4240A128A1557080A168A15A2220A12C6
:101782008A155508BA003A073D3E8400831380014A
:10179200840A80010130D5070318D60A0030D60723
:1017A20031305706031DF22B57080A168A15C42436
:1017B2000A128A1557080A168A15A2220A128A15CF
:1017C2005508BA003A073D3E840001308313800079
:1017D200840A003080000130D5070318D60A003091
:1017E200D60732305706031D132C57080A168A15DE
:1017F200C4240A128A1557080A168A15A2220A1246
:101802008A155508BA003A073D3E84000230831318
:101812008000840A003080000130D5070318D60A00
:101822000030D60733305706031D342C57080A16EA
:101832008A15C4240A128A1557080A168A15A22282
:101842000A128A155508BA003A073D3E8400033051
:1018520083138000840A003080000130D50703180A
:10186200D60A0030D60734305706031D552C5708C8
:101872000A168A15C4240A128A1557080A168A15E6
:10188200A2220A128A155508BA003A073D3E840080
:10189200043083138000840A003080000130D507B1
:1018A2000318D60A0030D60735305706031D762CAA
:1018B20057080A168A15C4240A128A1557080A16E6
:1018C2008A15A2220A128A155508BA003A073D3E25
:1018D2008400053083138000840A003080000130C8
:1018E200D5070318D60A0030D60736305706031D2F
:1018F200972C57080A168A15C4240A128A15570803
:101902000A168A15A2220A128A155508BA003A073F
:101912003D3E8400063083138000840A003080003C
:101922000130D5070318D60A0030D60737305706DC
:10193200031DB82C57080A168A15C4240A128A15E0
:1019420057080A168A15A2220A128A155508BA00E1
:101952003A073D3E8400073083138000840A00303A
:1019620080000130D5070318D60A0030D607383078
:101972005706031DD92C57080A168A15C4240A12C1
:101982008A1557080A168A15A2220A128A155508BC
:10199200BA003A073D3E8400083083138000840A6F
:1019A200003080000130D5070318D60A0030D60770
:1019B20039305706031DFA2C57080A168A15C42413
:1019C2000A128A1557080A168A15A2220A128A15BD
:1019D2005508BA003A073D3E84000930831380005F
:1019E200840A003080000130D5070318D60A00307F
:1019F200D60744305706031DAA2B01308316A307CE
:101A02000318A40A0030A4078312D101D201D30122
:101A1200D4015408803ABA005608803A3A02031DAB
:101A2200142D550853020318532D83120313530820
:101A32005502BA005408031C540A5602BB003A0865
:101A4200FF3EA4003B080318013EFF3EA500A6018D
:101A5200A51BA6032608A7000A168A1598260A12AD
:101A62008A152508B3002408B2005308BC003C07BD
:101A72003D3E840083130008B400840A0008B500C8
:101A82000A168A1584230A128A153208D107031806
:101A9200D20A3308D2070130D3070318D40A003020
:101AA200D4070A2D831203135208B9005108B80053
:101AB20008008312C600C61FB02EC609C60A460811
:101AC200803A123E031C1F2E0330FF007F08A8003D
:101AD2000A30A0000030A1004608F400F501F41B12
:101AE200F5036430F2000030F3000A168A1500266E
:101AF2000A128A157308A3007208A2000A168A1530
:101B0200EC260A128A152008093E0A168A15FC22BA
:101B12000A128A15393E840090300318013EFF00F4
:101B22000A168A1100200A128A15B0000A168A11B2
:101B320000200A128A15B1000A168A1100200A1220
:101B42008A15B2000330FF007F08A8006430A000AD
:101B52000030A1004608A200A301A21BA3030A169B
:101B62008A15EC260A128A152008123E0A168A15D0
:101B7200FC220A128A15393E840090300318013E75
:101B8200FF000A168A1100200A128A15B3000A16EB
:101B92008A1100200A128A15B4000A168A1100203E
:101BA2000A128A15B5000A128A1522200A128A150B
:101BB2003008C3003108C4003208C5000330FF00FA
:101BC2007F08A8004608F400F501F41BF5030A306B
:101BD200F2000030F3000A168A1500260A128A154E
:101BE20072080A168A15FC220A128A15393E8400E6
:101BF20090300318013EFF000A168A1100200A12D3
:101C02008A15B0000A168A1100200A128A15B1003C
:101C12000A168A1100200A128A15B2004308B3007C
:101C22004408B4004508B5000A128A15222030087B
:101C3200BF003108C0003208C10008004608803ADF
:101C4200753E031C8F2E0330FF007F08A800460854
:101C5200F400F501F41BF5030A30F2000030F30042
:101C62000A168A1500260A128A1572080A168A1599
:101C7200FC220A128A15393E840090300318013E74
:101C8200FF000A168A1100200A128A15B0000A16ED
:101C92008A1100200A128A15B1000A168A11002040
:101CA2000A128A15B2000330FF007F08A8000A302A
:101CB200A0000030A1004608A200A301A21BA303BA
:101CC2000A168A15EC260A128A152008093E0A16F7
:101CD2008A15FC220A128A15393E840090300318B4
:101CE200013EFF000A168A1100200A128A15B3006B
:101CF2000A168A1100200A128A15B4000A168A11DD
:101D020000200A128A15B5000A128A15222030080C
:101D1200BF003108C0003208C10008000330FF00D4
:101D22007F08A80046080A168A15FC220A128A159C
:101D3200393E840090300318013EFF000A168A11D2
:101D420000200A128A15BF000A168A1100200A1200
:101D52008A15C0000A168A110020C1000800460830
:101D6200803A123E031C6F2F0330FF007F08A80049
:101D72000A30A0000030A1004608F400F501F41B6F
:101D8200F5036430F2000030F3000A168A150026CB
:101D92000A128A157308A3007208A2000A168A158D
:101DA200EC260A128A152008093E0A168A15FC2218
:101DB2000A128A15123E840090300318013EFF0079
:101DC2000A168A1100200A128A15B0000A168A1110
:101DD20000200A128A15B1000A168A1100200A127E
:101DE2008A15B2000330FF007F08A8006430A0000B
:101DF2000030A1004608A200A301A21BA3030A16F9
:101E02008A15EC260A128A152008123E0A168A152D
:101E1200FC220A128A15123E840090300318013EF9
:101E2200FF000A168A1100200A128A15B3000A1648
:101E32008A1100200A128A15B4000A168A1100209B
:101E42000A128A15B5000A128A1522200A128A1568
:101E52003008C3003108C4003208C5000330FF0057
:101E62007F08A8004608F400F501F41BF5030A30C8
:101E7200F2000030F3000A168A1500260A128A15AB
:101E820072080A168A15FC220A128A15123E84006A
:101E920090300318013EFF000A168A1100200A1230
:101EA2008A15B0000A168A1100200A128A15B1009A
:101EB2000A168A1100200A128A15B2004308B300DA
:101EC2004408B4004508B5000A128A1522203008D9
:101ED200BF003108C0003208C10008004608803A3D
:101EE200753E031CDF2F0330FF007F08A800460861
:101EF200F400F501F41BF5030A30F2000030F300A0
:101F02000A168A1500260A128A1572080A168A15F6
:101F1200FC220A128A15123E840090300318013EF8
:101F2200FF000A168A1100200A128A15B0000A164A
:101F32008A1100200A128A15B1000A168A1100209D
:101F42000A128A15B2000330FF007F08A8000A3087
:101F5200A0000030A1004608A200A301A21BA30317
:101F62000A168A15EC260A128A152008093E0A1654
:101F72008A15FC220A128A15123E84009030031838
:101F8200013EFF000A168A1100200A128A15B300C8
:101F92000A168A1100200A128A15B4000A168A113A
:101FA20000200A128A15B5000A128A15222030086A
:101FB200BF003108C0003208C10008000330FF0032
:101FC2007F08A80046080A168A15FC220A128A15FA
:101FD200123E840090300318013EFF000A168A1157
:101FE20000200A128A15BF000A168A1100200A125E
:101FF2008A15C0000A168A110020C1000800FF1BC2
:102002000A2883137F1883170008840A0319FF0A1A
:1020120008007F087F398A000408840A0319FF0A2E
:102022008200003480343F340034203441340034A0
:10203200C834423400347A34443440341C34463494
:102042005034C33447342434743449349734183404
:102052004B34BC34BE344C346B346E344E340334A3
:10206200153450347934AD346034F3344934713436
:10207200003480343F34CD34CC343D34D73423342F
:102082003C34123483343A34B734D1343834C6341D
:1020920027343734383486343534C034D634333484
:1020A200CC342B343234703489343034E734DB347A
:1020B2002E34E5343C341E344234A2340D3401341F
:1020C2000034003400340A34003400340034643400
:1020D200003400340034E834033400340034103463
:1020E200273400340034A0348634013400344034C0
:1020F20042340F340034803496349834003400343F
:10210200E134F53405340034CA349A343B34203493
:10211200203441342E3451347534613479342034CE
:1021220074346834753461346E3420347C34203431
:1021320042342E34513475346134793420346E345F
:102142006734683469346334683420347C3420342E
:1021520043342E344334683461346E346734653426
:1021620020347334703465346534643420347C3400
:10217200203444342E3445346D346534723467343B
:1021820065346E34633479342034533474346F34A8
:1021920070347C340034203454346F34633420344B
:1021A20064346F3420343D342034253430342E34BA
:1021B20030346634203476342F3470342034003492
:1021C20020342D3441346E34743469342D34633404
:1021D2006C346F3463346B347734693473346534FC
:1021E2002034003445346E3474346534723420340F
:1021F200763461346C347534653420346634723428
:102202006F346D340034533470346534653464345F
:102212002034753470346434613474346534643415
:10222200003449346E34763461346C346934643445
:102232002034763461346C3475346534003420349F
:10224200503472346534733473342034613420343E
:102252006334683461347234003420342D344334AE
:102262006C346F3463346B3477346934733465346B
:10227200203400342034423461346D34203431341B
:1022820020346B347934203474347534003420347F
:10229200513475346134793420346E346734753492
:1022A2006F346334003420345134753461347934FA
:1022B200203474346834753461346E34003430340C
:0E22C2002D343134303430343A34203400348A
:1022D600580857045604031972298030D80659083D
:1022E600CA005A08CB005B08CC005608CD00570838
:1022F600CE005808CF000A168A11E3254A08D600F0
:102306004B08D7004C08D800080075080319902917
:10231600740873047204031DA3290030F200003010
:10232600F3000030F40008000130FF007F08F507D5
:1023360001300310F40CF30CF20CFF3E031D9C2934
:10234600FE3074050319BE2997290130FF007F0866
:10235600F5070130F207003003180130F3070030AB
:1023660003180130F40701300310F40CF30CF20CDF
:10237600FF3E031DB729FF3074050319D129A8298B
:1023860002307502031CD3290130F5020130031017
:10239600F20DF30DF40DFF3E031DCA29F31FC329E9
:1023A6007518DB29FF30F2057F30F305FF30F405A1
:1023B6000310F50C7508F700F801F9011030031049
:1023C600F70DF80DF90DFF3E031DE2297708F2041B
:1023D6007808F3047908F404760803190800F4175A
:1023E60008004E08D2004F08D3005008D40003104E
:1023F600530D540DFF007F08DA005A08031D0C2AFE
:102406000030D1000030D0000030CF000030CE00C8
:1024160008004E08D2004F08D3005008D4001730E9
:102426000310D40CD30CD20CFF3E031D132A520802
:10243600FF007F08D500CF17FF30CE05FF30CF0550
:102446000030D0054E08D6004F08D7005008D800F7
:10245600D9018E30DA02DA1F452A5A08803A8F3EB1
:10246600031C032A01300310D90CD80CD70CD60C48
:10247600FF3E031D362A0130FF007F08DA070319E5
:10248600582A352A18305A020318032A5A080319FB
:10249600582A0130D2000310D60DD70DD80DD90D0C
:1024A600D20B4E2A0130DA02492A55080319662A48
:1024B600D609D709D809D909D60A0319D70A03199B
:1024C600D80A0319D90A5908D1005808D000570864
:1024D600CF005608CE0008000A168A15DC220A1616
:1024E6008A11FF007F08FB0041307B06031DA52AE9
:1024F600071007162E30F3009130F4000A168A15DD
:10250600A5230A168A110A168A15C3220A168A11E3
:102516005430F7009130F8000A168A15F7240A1687
:102526008A11F601F60A02300A168A15B6250A1627
:102536008A11A530F7000030F8000A168A15F7242C
:102546000A168A1142307B06031DD32A0714071286
:10255600E130F3009030F4000A168A15A5230A1616
:102566008A110A168A15C3220A168A114830F700FC
:102576009130F8000A168A15F7240A168A11F60110
:10258600F60A02300A168A15B6250A168A11A530E9
:10259600F7000030F8000A168A15F7240A168A1181
:1025A60043307B06031DE12A0A168A15C3220A1642
:1025B6008A110A168A11EC220A168A1144307B0601
:1025C600031D080083120313EA01EB01071007122B
:1025D6000800F601F60A01300A168A15B6250A160B
:1025E6008A11F330F7009030F8000A168A15F7249E
:1025F6000A168A11F601F60A02300A168A15B62557
:102606000A168A116030F7009130F8000A168A150A
:10261600F7240A168A110A128A15A6230A168A119F
:102626003908EB003808EA006B08803AFF00803072
:102636007F02031D202B65306A0203184A2B0A16F7
:102646008A15C3220A168A11F601F60A01300A16FD
:102656008A15B6250A168A110430F7009130F8005B
:102666000A168A15F7240A168A11023083120313F2
:10267600DA004530D900A930D800D80B402BD90B49
:10268600402BDA0B402B0A168A15C32208000A16BD
:102696008A15C3220A168A11F601F60A01300A16AD
:1026A6008A15B6250A168A111230F7009130F800FD
:1026B6000A168A15F7240A168A11023083120313A2
:1026C600DA004530D900A930D800D80B682BD90BD1
:1026D600682BDA0B682B0800A101F51F7F2BF20986
:1026E600F309F409F509F20A0319F30A0319F40ABE
:1026F6000319F50AA101A10AF91F902BF609F7099A
:10270600F809F909F60A0319F70A0319F80A031969
:10271600F90A0130FF007F08A1060030A50000304D
:10272600A4000030A3000030A200750874047304EE
:1027360072040319E52BA001A00AF51BB02B01308A
:10274600FA000310F20DF30DF40DF50DFA0BA42BA0
:102756000130FF007F08A007A02B0130FA0003100C
:10276600A20DA30DA40DA50DFA0BB22B75087902C7
:10277600031DC72B74087802031DC72B7308770245
:10278600031DC72B72087602031CD82B7208F602AB
:102796007308031C730FF7027408031C740FF80206
:1027A6007508031C750FF902221401300310F50C8D
:1027B600F40CF30CF20CFF3E031DD92B0130A002E2
:1027C600031DB02B21080319F32BA209A309A409A1
:1027D600A509A20A0319A30A0319A40A0319A50A3B
:1027E6002508F5002408F4002308F3002208F20067
:1027F60008004208C5004308C6004408C700031085
:10280600460D470DFF007F08CC004C08031D122C17
:102816000030BF000030C0000030C10008003F0893
:10282600C5004008C6004108C7000310460D470D05
:10283600FF007F08CD004D08031D282C0030BF0087
:102846000030C0000030C10008000030C900003070
:10285600CA000030CB0089304D07C5004508CC02C0
:102866004408FF007F08CD004108FF007F08CD0621
:102876008030FF007F08CD05C317FF30C205FF304B
:10288600C3050030C405C017FF30BF05FF30C005C3
:102896000030C1051830FF007F08C8000130031062
:1028A600C90DCA0DCB0DFF3E031D522C4108440233
:1028B600031D632C40084302031D632C3F0842029C
:1028C600031C702C3F08C2024008031C400FC302C1
:1028D6004108031C410AC402491401300310C20D09
:1028E600C30DC40DFF3E031D712C0130C802031D2C
:1028F600512C4908F2004A08F3004B08F4004C0832
:10290600FF007F08F5004D08FF007F08F6000A1655
:102916008A1188217208BF007308C0007408C100BC
:1029260008005C08A1005B08A0000A168A151F2390
:102936000A168A112008C2002108C3002208C40012
:102946000030BF00C830C0004230C1000A168A11EC
:10295600FC230A168A113F08B3004008B400410858
:10296600B500C030B0007F30B1004430B2000A126A
:102976008A1522200A168A113008CE003108CF00A7
:102986003208D0000A168A11F4210A168A114F0855
:10299600DC004E08DB0004305C02003003195B02E9
:1029A600031808005C08A1005B08A0000A168A1537
:1029B6001F230A168A112008C2002108C300220814
:1029C600C400C030BF007F30C0004430C1000A16CA
:1029D6008A11FC230A168A113F08B3004008B40086
:1029E6004108B5000A168A1593240A168A11270883
:1029F600AD002608AC000A168A1563230A168A114A
:102A06002C08B0002D08B1002E08B2000A128A1553
:102A160022200A168A113008CE003108CF0032086B
:102A2600D0000A168A11F4214F08DC004E08DB009C
:102A36005B080239DD00DD0EDD0D17085D06DF39A6
:102A46005D0697005B080139DD00DD0E17085D069F
:102A5600EF395D0697005C08DE005B08DD000310B9
:102A6600DE0CDD0C0310DE0CDD0C5D0895000800A5
:102A76007208F8007308F9007408FA000310790D5B
:102A86007A0DFF007F088312A5002508031D542D2B
:102A96000030F5000030F4000030F3000030F200A2
:102AA60008007508F8007608F9007708FA000310A0
:102AB600790D7A0DFF007F08A400240803194B2D19
:102AC600F317FF30F205FF30F3050030F405F61773
:102AD600FF30F505FF30F6050030F7050030A3009E
:102AE6000030A2000030A1000030A0007F30A50217
:102AF60098302407F8007808A5021830FF007F08F0
:102B0600A4000130F8000310A00DA10DA20DA30D25
:102B1600F80B862D77087402031D972D760873022D
:102B2600031D972D75087202031CA42D7508F20269
:102B36007608031C760FF3027708031C770AF40263
:102B4600201401300310F20DF30DF40DFF3E031DAA
:102B5600A52D0130A402031D842DA51FC72D250810
:102B6600803A973E031C4B2D01300310A30CA20C98
:102B7600A10CA00CFF3E031DB82D0130FF007F08FD
:102B8600A5070319DA2DB72D1830250203184B2D8A
:102B960025080319DA2D0130F8000310A00DA10D48
:102BA600A20DA30DF80BD02D0130A502CB2D2308C5
:102BB600F5002208F4002108F3002008F2000800BE
:102BC6004A08D0004B08D1004C08D2000310510D22
:102BD600520DFF007F08D5004D08D0004E08D100E9
:102BE6004F08D2000310510D520DFF007F08D4008C
:102BF600550803190A2E540855020318112E5408B5
:102C0600D0005508D00219305002031C112E4D0871
:102C1600CA004E08CB004F08CC0008005408031920
:102C26000800550854020318202E5508D0005408F1
:102C3600D00219305002031808000630FF007F0842
:102C4600D300CC1BD317CF1B5317CB17FF30CA05A6
:102C5600FF30CB050030CC05CE17FF30CD05FF3059
:102C6600CE050030CF05540855020318602E0130FA
:102C76000310CD0DCE0DCF0DFF3E031D3B2E0130B3
:102C8600D4025408550603195B2E0130D3025308AB
:102C9600073903195B2E3A2E01300310CC0CCB0CEE
:102CA600CA0CFF3E031D502E0130FF007F08D507DA
:102CB600550854060319892E4F2E55085402031839
:102CC600892E01300310CA0DCB0DCC0DFF3E031D1E
:102CD600652E0130D502540855060319852E01309C
:102CE600D302530807390319852E642E01300310C9
:102CF600CF0CCE0CCD0CFF3E031D7A2E0130FF000B
:102D06007F08D40755085406031D792ED31F9B2E22
:102D1600FF30CA06FF30CB06FF30CC060130CA07AB
:102D2600003003180130CB07003003180130CC0700
:102D3600531FAD2EFF30CD06FF30CE06FF30CF0637
:102D46000130CD07003003180130CE0700300318DC
:102D56000130CF07D3014A08CD074B0803110318EA
:102D66004B0A031DCE074C08031103184C0A031D1A
:102D7600CF07CF1FD02EFF30CD06FF30CE06FF3057
:102D8600CF060130CD07003003180130CE070030E2
:102D960003180130CF07D301D30A4D08F2004E08BD
:102DA600F3004F08F4005508FF007F08F5005308AC
:102DB600FF007F08F6000A168A1188217208CA00E9
:102DC6007308CB007408CC00080072308400000839
:102DD60083120313A000840A0008A100840A0008D5
:102DE600A200840A0008A3000310220D230DFF0091
:102DF6007F08AD002D08031D092F0030F5000030B7
:102E0600F4000030F3000030F20008007530840052
:102E16000008A000840A0008A100840A0008A20095
:102E2600840A0008A3000310220D230DFF007F086B
:102E3600AC002C080319002F723084000030800487
:102E4600840A00308004840A80308004840A0030BA
:102E5600800472308400FF308005840AFF308005CC
:102E6600840AFF308005840A0030800575308400AE
:102E760000308004840A00308004840A8030800494
:102E8600840A0030800475308400FF308005840A8F
:102E9600FF308005840AFF308005840A00308005F3
:102EA6000030AB000030AA000030A9000030A800B6
:102EB6007F30AD02A0302C07A0002008AD022030E4
:102EC600FF007F08AC000130A0000310A80DA90D7B
:102ED600AA0DAB0DA00B682F753084000008A0006A
:102EE600840A0008A100840A0008A200840A0008D7
:102EF600A300723084000008A400840A0008A5001C
:102F0600840A0008A600840A0008A70023082702EE
:102F1600031D972F22082602031D972F210825023D
:102F2600031D972F20082402031CBC2F7530840034
:102F36000008A000840A0008A100840A0008A20074
:102F4600840A0008A3007230840020088002840AE4
:102F56002108031C210F8002840A2208031C220F69
:102F66008002840A2308031C230A80020330840299
:102F76002814723084000310800D840A800D840AA0
:102F8600800D840A800D8403840384030130AC021F
:102F9600031D662FAD1FE42F2D08803A9F3E031CAC
:102FA600002F01300310AB0CAA0CA90CA80CFF3E95
:102FB600031DD52F0130FF007F08AD070319F72F3A
:102FC600D42F20302D020318002F2D080319F72FB8
:102FD6000130A0000310A80DA90DAA0DAB0DA00B82
:102FE600ED2F0130AD02E82F2B08F5002A08F4007A
:0A2FF6002908F3002808F200080083
:10354400F2000C1EA32A72089900080081018B174F
:103554000B170B160113080081128111011581103C
:1035640001100800831297151715121583160711F9
:103574000800740873047204031908008030F40608
:10358400080000300A168A154B230A168A150130E2
:103594000A168A154B230800F300F2013A3073022D
:1035A4000318DA2A30307302031CDA2AF201F20A11
:1035B400720C08006E30FF007F08F5006E3075064F
:1035C400031DEA2A0A128A15D5200A168A15DD2A4D
:1035D4007508080083120313901090161016EE302D
:1035E4008E0085308F0010140C1083160C140B17EA
:1035F4008B170800FA00F9017A1C042B2808FF0035
:103604007F08F9070310A80D0310FA0C7A08031DAC
:10361400FE2A79080800831607138717813099005A
:1036240018151812831298178316981683121816F1
:10363400831618138312181308002008F2002108B7
:10364400F300F4018E30FF007F08F500F6010A163E
:103654008A1188217208A0007308A1007408A200CE
:103664000800F200721C392B831208163B2B8312BC
:103674000812F21C3F2B8816402B8812721D442B13
:103684000817452B0813F21D492B881708008813C7
:103694000800F50083120313081175080A168A1529
:1036A40033230A168A1588151A30F400F830F3000B
:1036B400F30B5A2BF40B5A2B0000831203138811BB
:1036C4000800AF01AD1F6D2BAC09AD09AC0A03199D
:1036D400AD0AAF01AF0A2C08F2002D08F300F40183
:1036E4008E30FF007F08F5002F08FF007F08F600EA
:1036F4000A168A1188217208AC007308AD00740898
:10370400AE000800B601B701321C8E2B3408B60790
:103714000318B70A3508B70701300310B40DB50D07
:10372400FF3E031D8F2B01300310B30CB20CFF3E80
:10373400031D962B32083304031D862B3708B30070
:103744003608B20008007408FF00730884000A16E3
:103754008A1100200A168A15003A03190800740811
:10376400FF00730884000A168A1100200A168A15BD
:103774000A168A15A2220A168A150130F3070318BD
:10378400F40A0030F407A52BF5000830FF007F0889
:10379400F600F7017508F30007300310F30CFF3E41
:1037A400031DCF2B7708F40074077304FF007F0810
:1037B400F7000310F50D72087702031CE32B72085F
:1037C400F7020130F602031DCC2B770808008601AE
:1037D400831686110611861087118617861FF62B0D
:1037E400831603130617F92B831603130613061FF8
:1037F400FF2B831603138616022C831603138612DB
:10380400861E082C8316031306160B2C831603132B
:1038140006127F30FF007F08810508008B1C1D2CD9
:10382400831203136C08013EEC006D080318013E7B
:10383400003EED008B10831203130C1C342C6D0816
:10384400EF006C08EE0083160C100B128312EC01CF
:10385400ED010B1683160C14EE3083128E008530A6
:103864008F000C1071088A00700E8300FE0E7E0E0D
:1038740009008E30FF007F08FA00FF30230503198A
:10388400512C01300310A30CA20CA10CA00CFF3E80
:10389400031D442C0130FF007F08FA073F2C200849
:1038A400F2002108F3002208F4007A08FF007F08E0
:1038B400F500F6010A168A1188217208A00073081F
:1038C400A1007408A2000800F41F752C7208003CC3
:1038D400F2007308031C730F003CF3007408031C0C
:1038E400740F803CF400F71F842C7508003CF5002D
:1038F4007608031C760F003CF6007708031C770F4C
:10390400803CF7008030F4068030F70677087402B4
:10391400031D080076087302031D0800750872026F
:103924000800831639088312A80083163A08831204
:10393400A90083163B088312AA0083163C0883124D
:10394400AB0002300310A80DA90DAA0DAB0DFF3E6C
:10395400031DA42C2B08F5002A08F4002908F30001
:103964002808F2000130F9003130F8002D30F7005A
:103974000030F6000A168A116F237308A700720834
:10398400A6000800F60076080F39FF007F08F4004F
:103994007608F039FF007F08F50008157508F30074
:1039A40004300310F30CFF3E031DD32C73080A16D6
:1039B4008A1533230A168A1588154230F300F30B4F
:1039C400E12C000083120313881174080A168A1567
:1039D40033230A168A1588154230F300F30BF02CB2
:1039E40000008312031388110800F901FA01790811
:1039F40077078312A1007808A0000318A00AF91B16
:103A0400A003831203132008A2002208FF00210848
:103A140084000A168A1100200A168A15003A03192E
:103A2400080079087707A1007808A0000318A00A05
:103A3400F91BA003831203132008A2002208FF002D
:103A4400210884000A168A1100200A168A150A160B
:103A54008A15C4240A168A150130F9070318FA0ACC
:103A64000030FA07F92C0030A3000030A200003027
:103A7400A1000030A000721C532D7608A00777081F
:103A840003110318013E031DA1077808031103184D
:103A9400013E031DA207790803110318013E031D0B
:103AA400A3070130FA000310F60DF70DF80DF90D18
:103AB400FA0B552D01300310F50CF40CF30CF20C39
:103AC400FF3E031D5D2D7508740473047204031D09
:103AD4003D2D2308F5002208F4002108F3002008F6
:103AE400F20008002608AA002708AB002808AC004A
:103AF4002908AD0002300310AA0DAB0DAC0DAD0DBD
:103B0400FF3E031D7D2D02300310AA0DAB0DAC0D3D
:103B1400AD0DFF3E031D862D2D08F5002C08F40085
:103B24002B08F3002A08F2000130F9003130F800C4
:103B34002D30F7000030F6000A168A116F23720840
:103B4400FF3E83169200831229088316BC00831259
:103B540028088316BB00831227088316BA00831231
:103B640026088316B9000800A0002003031DDB2DDE
:103B740076087F3EFF007F08A3002308F700043087
:103B84000310F70CFF3E031DC22D7708FF007F08CA
:103B9400A10023080F39FF007F08A20021080A169C
:103BA4008A154B230A168A1522080A168A154B23EE
:103BB400080002302006031D08007608BF3EFF00FF
:103BC4007F08A3002308F70004300310F70CFF3E1E
:103BD400031DE72D7708FF007F08A10023080F3994
:103BE400FF007F08A20021080A168A154B230A1633
:103BF4008A1522080A168A154B230800F701F51FB7
:103C04000A2EF409F509F40A0319F50AF701F70A6B
:103C1400F31F112EF209F309F20A0319F30A7208C9
:103C2400730403193E2EF601F60AF31B252E013008
:103C34000310F20DF30DFF3E031D1A2E0130FF0099
:103C44007F08F607172E73087502031D2B2E7208C2
:103C54007402031C332E7208F4027308031CF50368
:103C6400F50201300310F30CF20CFF3E031D342E59
:103C74000130F602031D252E77080319462EF40998
:103C8400F509F40A0319F50A7508F3007408F2003B
:103C94000800750874047304720403198F2E8312C8
:103CA400A001A00AF51B642E0130FA000310F20DE6
:103CB400F30DF40DF50DFA0B582E0130FF007F08BB
:103CC400A007542E75087902031D722E7408780219
:103CD400031D722E73087702031D722E720876027A
:103CE400031C822E7208F6027308031C730FF7027A
:103CF4007408031C740FF8027508031C750FF9028D
:103D040001300310F50CF40CF30CF20CFF3E031D10
:103D1400832E0130A002031D642E7908F500780873
:103D2400F4007708F3007608F20008000030B100D0
:103D34000030B0000030AF000130AE00AC01AD0186
:103D44002C08A8002D08A9000030A91BFF30AA00E8
:103D5400AB002B08803AFF002708803A7F02031D3E
:103D6400BD2E26082A02031DBD2E25082902031D87
:103D7400BD2E240828020318E32E0030F50000307D
:103D8400F4000030F3000A30F2003108F900300882
:103D9400F8002F08F7002E08F6000A168A153525B4
:103DA4000A168A157508B1007408B0007308AF00CC
:103DB4007208AE000130AC070318AD0A0030AD073D
:103DC400A22E3108A7003008A6002F08A5002E084F
:103DD400A4000800A501A11FF62EA009A109A00AAC
:103DE4000319A10AA501A50AA31F012FA209A3096A
:103DF400A20A0319A30A0130FF007F08A506A60141
:103E0400A701200821040319382FA401A40AA11B27
:103E1400172F01300310A00DA10DFF3E031D0C2F21
:103E24000130FF007F08A407092F01300310A60DFD
:103E3400A70DFF3E031D182F21082302031D242F65
:103E440020082202031C2D2F2008A2022108031C93
:103E5400A303A302261401300310A10CA00CFF3EFF
:103E6400031D2E2F0130A402031D172F250803194B
:103E7400402FA609A709A60A0319A70A2708A10023
:103E84002608A000080000300A168A1533230A16F3
:103E94008A158230F700DD30F600F60B4F2FF70B52
:103EA4004F2F542F03300A168A154B230A168A15EE
:103EB4002130F7007630F600F60B5E2FF70B5E2FFD
:103EC400000003300A168A154B230A168A15483057
:103ED400F7006C30F600F60B6D2FF70B6D2F00001A
:103EE40003300A168A154B230A168A1502300A165D
:103EF4008A154B230A168A1502300A168A154B2393
:103F04000A168A1508300A168A154B230A168A15CA
:103F140000300A168A154B230A168A150C300A1625
:103F24008A154B230A168A1500300A168A154B2364
:103F34000A168A1506300A168A154B230800003023
:103F44008312A3000030A2000030A1000030A000C2
:103F540075087404730472040319F72FA401A40AE6
:103F6400F51BC22F0130FA000310F20DF30DF40D0E
:103F7400F50DFA0BB62F0130FF007F08A407B22F0E
:103F84000130FA000310A00DA10DA20DA30DFA0B30
:103F9400C42F75087902031DD92F74087802031DF4
:103FA400D92F73087702031DD92F72087602031CD8
:103FB400EA2F7208F6027308031C730FF7027408E1
:103FC400031C740FF8027508031C750FF902201402
:103FD40001300310F50CF40CF30CF20CFF3E031D3E
:103FE400EB2F0130A402031DC22F2308F500220881
:0C3FF400F4002108F3002008F20008008F
:02400E003A3F37
:00000001FF
